:100000000C942A000C9447000C9447000C94470071
:100010000C9447000C9447000C9447000C94470044
:100020000C9447000C9447000C9447000C94470034
:100030000C9447000C9447000C9447000C94470024
:100040000C9447000C9447000C9447000C94470014
:100050000C94470011241FBECFE5D4E0DEBFCDBF16
:1000600010E0A0E6B0E0E2E3F2E002C005900D92FD
:10007000A636B107D9F710E0A6E6B0E001C01D92A0
:10008000A636B107E1F70E94CC000C9417010C943E
:10009000000082E085BBA898A998AA9A20EA3FE0D0
:1000A000C9010197F1F7AA9888E285BBA898A99899
:1000B000AA9AC9010197F1F7AA9886E085BBA8988A
:1000C000A998AA9AC9010197F1F7AA988CE085BB73
:1000D000A898A998AA9AC9010197F1F7AA98089532
:1000E00085BBA898A998AA9A80EA9FE00197F1F7A2
:1000F000AA98089585BBA89AA998AA9A80EA9FE031
:100100000197F1F7AA980895282F207F25BBA8987A
:10011000A998AA9A20EA3FE0F9013197F1F7AA9845
:1001200090E044E0880F991F4A95E1F785BBA898B5
:10013000A998AA9AC9010197F1F7AA98C90101974C
:10014000F1F70895282F207F25BBA89AA998AA9A8D
:1001500020EA3FE0F9013197F1F7AA9890E054E0E6
:10016000880F991F5A95E1F785BBA89AA998AA9A72
:10017000C9010197F1F7AA98C9010197F1F708950C
:10018000CF93DF93EC0102C00E94A20089918823E3
:10019000D9F7DF91CF910895CF93DF938FEF84BB91
:1001A00087BB0E944900C0EADFE080E80E9484002B
:1001B00080E690E00E94C000CE010197F1F7F5CFF4
:1001C000CF93DF93EC0184E00FC0CE016AE070E0D2
:1001D0000E940301805D0E94A200CE016AE070E0EF
:1001E0000E940301EB0186E00E948400209769F7DA
:1001F000DF91CF91089581E00E94840080EA9FE022
:100200000197F1F70895AA1BBB1B51E107C0AA1F74
:10021000BB1FA617B70710F0A61BB70B881F991FA7
:100220005A95A9F780959095BC01CD010895F89451
:02023000FFCFFE
:06023200537572796100B2
:00000001FF
