:100000000C942A000C9447000C9447000C94470071
:100010000C9447000C9447000C9447000C94470044
:100020000C9447000C9447000C9447000C94470034
:100030000C9447000C9447000C9447000C94470024
:100040000C9447000C9447000C9447000C94470014
:100050000C94470011241FBECFE5D4E0DEBFCDBF16
:1000600010E0A0E6B0E0E6ECF1E002C005900D92F1
:10007000A636B107D9F710E0A6E6B0E001C01D92A0
:10008000A636B107E1F70E94A6000C94E1000C949B
:10009000000082E082BBA898A998AA9A40EA5FE093
:1000A000CA010197F1F7AA9820E23EE4C90101973D
:1000B000F1F788E382BBA898A998AA9ACA01019788
:1000C000F1F7AA98C9010197F1F786E082BBA898D9
:1000D000A998AA9ACA010197F1F7AA98C9010197AC
:1000E000F1F78CE082BBA898A998AA9ACA01019757
:1000F000F1F7AA98C9010197F1F7089582BBA89872
:10010000A998AA9A80EA9FE00197F1F7AA9880E25D
:100110009EE40197F1F7089582BBA89AA998AA9A3C
:1001200080EA9FE00197F1F7AA980895FC0120EA80
:100130003FE008C082BBA89AA998AA9AC901019772
:10014000F1F7AA9881918823A9F70895FF920F9358
:100150001F93CF93DF938FEF84BB81BB0E94490035
:1001600080E8F82EC0EADFE000E21EE4F2BAA898C8
:10017000A998AA9ACE010197F1F7AA98C801019708
:10018000F1F780E690E00E949600CE010197F1F72A
:10019000EDCF81E082BBA898A998AA9A80EA9FE057
:1001A0000197F1F7AA9880E29EE40197F1F780EDBC
:1001B00097E020E931E0F9013197F1F70197D9F79C
:0601C0000895F894FFCF42
:0601C6005375727961001F
:00000001FF
