:100000000C942A000C9447000C9447000C94470071
:100010000C9447000C9447000C9447000C94470044
:100020000C9447000C9447000C9447000C94470034
:100030000C9447000C9447000C9447000C94470024
:100040000C9447000C9447000C9447000C94470014
:100050000C94470011241FBECFE5D4E0DEBFCDBF16
:1000600010E0A0E6B0E0E0E0F1E002C005900D9203
:10007000A036B107D9F710E0A0E6B0E001C01D92AC
:10008000A036B107E1F70E9458000C947E000C9452
:10009000000080EC87B987E886B9089597B187702A
:1000A000892B87B9369A349A24B135B1C90108959C
:1000B0008FEF81BB80EC87B987E886B95FEF29E1D4
:1000C00030E043E087B187B9369A349A84B195B16C
:1000D000805094408CF452BB80E29EE4F901319749
:1000E000F1F70197D9F742BB80E29EE4F90131971D
:1000F000F1F70197D9F7E6CF12BAE4CFF894FFCF22
:00000001FF
