:100000000C942A000C9449000C9447000C9447006F
:100010000C9447000C9447000C9447000C94470044
:100020000C9447000C9447000C9447000C94470034
:100030000C9447000C9447000C9447000C94470024
:100040000C9447000C9447000C9447000C94470014
:100050000C94470011241FBECFE5D4E0DEBFCDBF16
:1000600010E0A0E6B0E0ECE4F1E002C005900D92F3
:10007000A036B107D9F710E0A0E6B0E001C01D92AC
:10008000A036B107E1F70E9487000C94A4000C94FD
:1000900000001F920F920FB60F9211242F933F93DF
:1000A0004F935F936F938F939F93EF93FF9388E8A2
:1000B00093E129E130E0F9013197F1F70197D9F7A0
:1000C00035B320E049E150E06FEF15BA88E893E1DD
:1000D000FA013197F1F70197D9F765BB88E893E109
:1000E000FA013197F1F70197D9F72F5F253069F7BA
:1000F00035BBFF91EF919F918F916F915F914F91E0
:100100003F912F910F900FBE0F901F90189591E087
:1001100091BB12BA8FEF84BB95BB80E48BBF83E0A9
:1001200085BF789441E029E130E0AF9B02C045BB38
:1001300003C085B3880F85BB88E893E1F901319747
:0C014000F1F7019791F3FACFF894FFCF8C
:00000001FF
