:100000000C942A000C9447000C9447000C94470071
:100010000C9447000C9447000C9447000C94470044
:100020000C9447000C9447000C9447000C94470034
:100030000C9447000C9447000C9447000C94470024
:100040000C9447000C9447000C9447000C94470014
:100050000C94470011241FBECFE5D4E0DEBFCDBF16
:1000600010E0A0E6B0E0E8E0F2E002C005900D92FA
:10007000A436B107D9F710E0A4E6B0E001C01D92A4
:10008000A436B107E1F70E94BA000C9402010C9467
:10009000000088BBD898D998DA9A8AEF90E0FC01E2
:1000A0003197F1F7DA980197F1F7089582E088BB6C
:1000B000D898D998DA9A2AEF30E0C9010197F1F778
:1000C000DA98C9010197F1F788E388BBD898D998E5
:1000D000DA9AC9010197F1F7DA98C9010197F1F7A6
:1000E00086E088BBD898D998DA9AC9010197F1F7C8
:1000F000DA98C9010197F1F78CE088BBD898D998B4
:10010000DA9AC9010197F1F7DA98C9010197F1F775
:10011000089588BBD89AD998DA9A8AEF90E0FC01C2
:100120003197F1F7DA980197F1F70895FC012AEF7A
:1001300030E00BC088BBD89AD998DA9AC9010197E8
:10014000F1F7DA98C9010197F1F78191882391F7C6
:10015000089581E088BBD898D998DA9A8AEF90E020
:10016000FC013197F1F7DA98FC013197F1F701972B
:10017000F1F70895DF92EF92FF920F931F93CF93C1
:10018000DF938FEF8ABB87BB14BA81BB15BA12BA53
:100190000E945600C0E0D0E0DD24D3940AEF10E0C6
:1001A00081E0E82EF12CC430D10511F4C0E0D0E09C
:1001B000989B19C0809B15C0D8BAD898D998DA9A5C
:1001C000C8010197F1F7DA98C8010197F1F7C80162
:1001D0000197F1F780E690E00E949600C801019730
:1001E000F1F780B380B383B383B383B322B3C70182
:1001F0000C2E02C0880F991F0A94E2F7282B22BB0D
:080200002196D1CFF894FFCF45
:040208004F6E6500D0
:00000001FF
