:100000000C942A000C9447000C9447000C94470071
:100010000C9447000C9447000C9447000C94470044
:100020000C9447000C9447000C9447000C94470034
:100030000C9447000C9447000C9447000C94470024
:100040000C9447000C9447000C9447000C94470014
:100050000C94470011241FBECFE5D4E0DEBFCDBF16
:1000600010E0A0E6B0E0E4EBF1E002C005900D92F4
:10007000A636B107D9F710E0A6E6B0E001C01D92A0
:10008000A636B107E1F70E94A3000C94D8000C94A7
:10009000000082E082BBA898A998AA9A20EA3FE0D3
:1000A000C9010197F1F7AA98C9010197F1F788E30F
:1000B00082BBA898A998AA9AC9010197F1F7AA98B2
:1000C000C9010197F1F786E082BBA898A998AA9A7E
:1000D000C9010197F1F7AA98C9010197F1F78CE0DE
:1000E00082BBA898A998AA9AC9010197F1F7AA9882
:1000F000C9010197F1F7089582BBA898A998AA9A17
:1001000080EA9FE0FC013197F1F7AA980197F1F797
:10011000089582BBA89AA998AA9A80EA9FE00197BD
:10012000F1F7AA980895FC0120EA3FE008C082BBDD
:10013000A89AA998AA9AC9010197F1F7AA9881915A
:100140008823A9F708951F93CF93DF938FEF84BB84
:1001500081BB0E94490010E8C0EADFE012BBA8980A
:10016000A998AA9ACE010197F1F7AA98CE01019712
:10017000F1F780E690E00E949300CE010197F1F73D
:10018000EDCF81E082BBA898A998AA9A80EA9FE067
:10019000FC013197F1F7AA980197F1F780ED97E00C
:1001A00020E931E0F9013197F1F70197D9F7089586
:0401B000F894FFCFF1
:0601B40053757279610031
:00000001FF
